{
  "_format": "hh-sol-artifact-1",
  "contractName": "Assessment",
  "sourceName": "contracts/Assessment.sol",
  "abi": [
    {
      "inputs": [
        {
          "internalType": "uint256",
          "name": "initBalance",
          "type": "uint256"
        }
      ],
      "stateMutability": "payable",
      "type": "constructor"
    },
    {
      "inputs": [
        {
          "internalType": "uint256",
          "name": "balance",
          "type": "uint256"
        },
        {
          "internalType": "uint256",
          "name": "withdrawAmount",
          "type": "uint256"
        }
      ],
      "name": "InsufficientBalance",
      "type": "error"
    },
    {
      "anonymous": false,
      "inputs": [
        {
          "indexed": false,
          "internalType": "uint256",
          "name": "amount",
          "type": "uint256"
        }
      ],
      "name": "Deposit",
      "type": "event"
    },
    {
      "anonymous": false,
      "inputs": [
        {
          "indexed": false,
          "internalType": "uint256",
          "name": "amount",
          "type": "uint256"
        }
      ],
      "name": "Withdraw",
      "type": "event"
    },
    {
      "inputs": [],
      "name": "balance",
      "outputs": [
        {
          "internalType": "uint256",
          "name": "",
          "type": "uint256"
        }
      ],
      "stateMutability": "view",
      "type": "function"
    },
    {
      "inputs": [],
      "name": "deposit",
      "outputs": [],
      "stateMutability": "payable",
      "type": "function"
    },
    {
      "inputs": [],
      "name": "getBalance",
      "outputs": [
        {
          "internalType": "uint256",
          "name": "",
          "type": "uint256"
        }
      ],
      "stateMutability": "view",
      "type": "function"
    },
    {
      "inputs": [],
      "name": "owner",
      "outputs": [
        {
          "internalType": "address payable",
          "name": "",
          "type": "address"
        }
      ],
      "stateMutability": "view",
      "type": "function"
    },
    {
      "inputs": [
        {
          "internalType": "uint256",
          "name": "_amount",
          "type": "uint256"
        }
      ],
      "name": "specifiedDeposit",
      "outputs": [],
      "stateMutability": "payable",
      "type": "function"
    },
    {
      "inputs": [
        {
          "internalType": "uint256",
          "name": "_amount",
          "type": "uint256"
        }
      ],
      "name": "specifiedWithdraw",
      "outputs": [],
      "stateMutability": "nonpayable",
      "type": "function"
    },
    {
      "inputs": [],
      "name": "withdraw",
      "outputs": [],
      "stateMutability": "nonpayable",
      "type": "function"
    }
  ],
  "bytecode": "0x6080604052604051610a7b380380610a7b833981810160405281019061002591906100ad565b336000806101000a81548173ffffffffffffffffffffffffffffffffffffffff021916908373ffffffffffffffffffffffffffffffffffffffff16021790555080600181905550506100da565b600080fd5b6000819050919050565b61008a81610077565b811461009557600080fd5b50565b6000815190506100a781610081565b92915050565b6000602082840312156100c3576100c2610072565b5b60006100d184828501610098565b91505092915050565b610992806100e96000396000f3fe6080604052600436106100705760003560e01c80634788db411161004e5780634788db41146100d35780638da5cb5b146100fc578063b69ef8a814610127578063d0e30db01461015257610070565b806312065fe0146100755780633ccfd60b146100a0578063419e1cea146100b7575b600080fd5b34801561008157600080fd5b5061008a61015c565b6040516100979190610663565b60405180910390f35b3480156100ac57600080fd5b506100b5610166565b005b6100d160048036038101906100cc91906106af565b6102bd565b005b3480156100df57600080fd5b506100fa60048036038101906100f591906106af565b6103c3565b005b34801561010857600080fd5b50610111610514565b60405161011e919061071d565b60405180910390f35b34801561013357600080fd5b5061013c610538565b6040516101499190610663565b60405180910390f35b61015a61053e565b005b6000600154905090565b60006001905060008054906101000a900473ffffffffffffffffffffffffffffffffffffffff1673ffffffffffffffffffffffffffffffffffffffff163373ffffffffffffffffffffffffffffffffffffffff16146101fa576040517f08c379a00000000000000000000000000000000000000000000000000000000081526004016101f1906107bb565b60405180910390fd5b6000600154905081600154101561024c57600154826040517fcf4791810000000000000000000000000000000000000000000000000000000081526004016102439291906107db565b60405180910390fd5b600180600082825461025e9190610833565b9250508190555081816102719190610833565b6001541461028257610281610867565b5b7f5b6b431d4476a211bb7d41c20d1aab9ae2321deee0d20be3d9fc9b1093fa6e3d826040516102b19190610663565b60405180910390a15050565b6000600154905060008054906101000a900473ffffffffffffffffffffffffffffffffffffffff1673ffffffffffffffffffffffffffffffffffffffff163373ffffffffffffffffffffffffffffffffffffffff1614610352576040517f08c379a000000000000000000000000000000000000000000000000000000000815260040161034990610908565b60405180910390fd5b81600160008282546103649190610928565b9250508190555081816103779190610928565b6001541461038857610387610867565b5b7f4d6ce1e535dbade1c23defba91e23b8f791ce5edc0cc320257a2b364e4e38426826040516103b79190610663565b60405180910390a15050565b60008054906101000a900473ffffffffffffffffffffffffffffffffffffffff1673ffffffffffffffffffffffffffffffffffffffff163373ffffffffffffffffffffffffffffffffffffffff1614610451576040517f08c379a0000000000000000000000000000000000000000000000000000000008152600401610448906107bb565b60405180910390fd5b600060015490508160015410156104a357600154826040517fcf47918100000000000000000000000000000000000000000000000000000000815260040161049a9291906107db565b60405180910390fd5b81600160008282546104b59190610833565b9250508190555081816104c89190610833565b600154146104d9576104d8610867565b5b7f5b6b431d4476a211bb7d41c20d1aab9ae2321deee0d20be3d9fc9b1093fa6e3d826040516105089190610663565b60405180910390a15050565b60008054906101000a900473ffffffffffffffffffffffffffffffffffffffff1681565b60015481565b6000600190506000600154905060008054906101000a900473ffffffffffffffffffffffffffffffffffffffff1673ffffffffffffffffffffffffffffffffffffffff163373ffffffffffffffffffffffffffffffffffffffff16146105d9576040517f08c379a00000000000000000000000000000000000000000000000000000000081526004016105d0906107bb565b60405180910390fd5b81600160008282546105eb9190610928565b9250508190555081816105fe9190610928565b6001541461060f5761060e610867565b5b7f4d6ce1e535dbade1c23defba91e23b8f791ce5edc0cc320257a2b364e4e384268260405161063e9190610663565b60405180910390a15050565b6000819050919050565b61065d8161064a565b82525050565b60006020820190506106786000830184610654565b92915050565b600080fd5b61068c8161064a565b811461069757600080fd5b50565b6000813590506106a981610683565b92915050565b6000602082840312156106c5576106c461067e565b5b60006106d38482850161069a565b91505092915050565b600073ffffffffffffffffffffffffffffffffffffffff82169050919050565b6000610707826106dc565b9050919050565b610717816106fc565b82525050565b6000602082019050610732600083018461070e565b92915050565b600082825260208201905092915050565b7f596f7520617265206e6f7420746865206f776e6572206f66207468697320616360008201527f636f756e74000000000000000000000000000000000000000000000000000000602082015250565b60006107a5602583610738565b91506107b082610749565b604082019050919050565b600060208201905081810360008301526107d481610798565b9050919050565b60006040820190506107f06000830185610654565b6107fd6020830184610654565b9392505050565b7f4e487b7100000000000000000000000000000000000000000000000000000000600052601160045260246000fd5b600061083e8261064a565b91506108498361064a565b925082820390508181111561086157610860610804565b5b92915050565b7f4e487b7100000000000000000000000000000000000000000000000000000000600052600160045260246000fd5b7f596f757220617265206e6f7420746865206f776e6572206f662074686973206160008201527f63636f756e740000000000000000000000000000000000000000000000000000602082015250565b60006108f2602683610738565b91506108fd82610896565b604082019050919050565b60006020820190508181036000830152610921816108e5565b9050919050565b60006109338261064a565b915061093e8361064a565b925082820190508082111561095657610955610804565b5b9291505056fea264697066735822122003ad18d265a8bd2db09fc3b988f5c8976d5a34ebaed88bf815423fdc5486cd8264736f6c63430008110033",
  "linkReferences": {},
  "deployedLinkReferences": {}
}